00COTAHIST.2026BOVESPA 20260316                                                                                                                                                                                                                      
012026031602NGRD3       010NEOGRID     ON      NM   R$  000000000251100000000026490000000002511000000000255500000000026490000000002540000000000265000029000000000000006700000000000017123000000000000000009999123100000010000000000000BRNGRDACNOR3106
012026031602NUTR3       010NUTRIPLANT  ON      MA   R$  000000000023500000000002430000000000235000000000024000000000002400000000000238000000000025500016000000000000008600000000000002068300000000000000009999123100000010000000000000BRNUTRACNOR0104
012026031602MATD3       010MATER DEI   ON      NM   R$  000000000058900000000006050000000000587000000000059900000000006030000000000600000000000060300459000000000000066800000000000040048900000000000000009999123100000010000000000000BRMATDACNOR4106
012026031602MBRF3       010MARFRIG     ON      NM   R$  000000000203500000000020930000000002017000000000206300000000020520000000002043000000000205315771000000000006340000000000013083116800000000000000009999123100000010000000000000BRMBRFACNOR1100
012026031602MWET4       010WETZEL S/A  PN           R$  000000000113900000000011660000000001075000000000110800000000011300000000001012000000000114900007000000000000001200000000000001330400000000000000009999123100000010000000000000BRMWETACNPR3118
012026031602MYPK3       010IOCHP-MAXIONON      NM   R$  000000000105000000000010500000000001012000000000102100000000010180000000001018000000000101905299000000000001774700000000001813087300000000000000009999123100000010000000000000BRMYPKACNOR7158
012026031602NATU3       010NATURA      ON      NM   R$  000000000090300000000009080000000000886000000000089700000000008990000000000899000000000090009200000000000004945300000000004436637100000000000000009999123100000010000000000000BRNATUACNOR6137
012026031602REDE3       010REDE ENERGIAON           R$  000000000063800000000006380000000000631000000000063300000000006310000000000631000000000063800008000000000000001000000000000000633200000000000000009999123100000010000000000000BRREDEACNOR7134
012026031602RENT3       010LOCALIZA    ON      NM   R$  000000000498200000000052250000000004890000000000511200000000051730000000005173000000000517439277000000000014027000000000071706656800000000000000009999123100000010000000000000BRRENTACNOR4205
012026031602RENT4       010LOCALIZA    PN      NM   R$  000000000480100000000050050000000004722000000000494100000000049850000000004983000000000499901914000000000000547000000000002703202900000000000000009999123100000010000000000000BRRENTACNPR1100
012026031602GOAU3       010GERDAU MET  ON      N1   R$  000000000089900000000008990000000000883000000000088900000000008970000000000890000000000089700361000000000000070400000000000062629100000000000000009999123100000010000000000000BRGOAUACNOR1274
012026031602GOAU4       010GERDAU MET  PN      N1   R$  000000000091900000000009310000000000912000000000092200000000009270000000000925000000000092710930000000000008940500000000008250452000000000000000009999123100000010000000000000BRGOAUACNPR8275
012026031602HAGA3       010HAGA S/A    ON           R$  000000000021800000000002270000000000211000000000021700000000002270000000000215000000000022700011000000000000003400000000000000738300000000000000009999123100000010000000000000BRHAGAACNOR7103
012026031602HAGA4       010HAGA S/A    PN           R$  000000000015200000000001550000000000140000000000014400000000001500000000000143000000000015000036000000000000058000000000000008381600000000000000009999123100000010000000000000BRHAGAACNPR4103
012026031602HAPV3       010HAPVIDA     ON      NM   R$  000000000103600000000010420000000001020000000000103100000000010360000000001036000000000103712031000000000008312700000000008570806600000000000000009999123100000010000000000000BRHAPVACNOR4119
012026031602ITSA3       010ITAUSA      ON  EJ  N1   R$  000000000140100000000014200000000001390000000000141200000000014190000000001410000000000141901042000000000000301400000000000425697200000000000000009999123100000010000000000000BRITSAACNOR0456
012026031602ITSA4       010ITAUSA      PN  EJ  N1   R$  000000000139700000000014190000000001393000000000140800000000014140000000001413000000000141527161000000000022398600000000031556750000000000000000009999123100000010000000000000BRITSAACNPR7456
012026031602LOGG3       010LOG COM PROPON      NM   R$  000000000275500000000028570000000002755000000000282300000000028010000000002801000000000284904388000000000000828400000000002338927800000000000000009999123100000010000000000000BRLOGGACNOR7112
012026031602LOGN3       010LOG-IN      ON      NM   R$  000000000320600000000032500000000003194000000000322000000000032270000000003201000000000322700104000000000000051400000000000165534900000000000000009999123100000010000000000000BRLOGNACNOR3105
012026031602LPSB3       010LOPES BRASILON      NM   R$  000000000018200000000001900000000000176000000000018100000000001870000000000187000000000018800412000000000000267500000000000048674100000000000000009999123100000010000000000000BRLPSBACNOR0116
012026031602LREN3       010LOJAS RENNERON      NM   R$  000000000153000000000015700000000001510000000000154600000000015520000000001550000000000155313334000000000006278400000000009711006100000000000000009999123100000010000000000000BRLRENACNOR1228
012026031602CPFE3       010CPFL ENERGIAON      NM   R$  000000000498200000000049820000000004876000000000491900000000049470000000004935000000000494911779000000000002026700000000009970640700000000000000009999123100000010000000000000BRCPFEACNOR0138
012026031602CPLE3       010COPEL       ON      NM   R$  000000000145800000000014790000000001428000000000146300000000014730000000001471000000000147441495000000000025231800000000036933816300000000000000009999123100000010000000000000BRCPLEACNOR8153
012026031602DASA3       010DASA        ON      NM   R$  000000000040000000000004000000000000385000000000039000000000003920000000000391000000000039202249000000000001126600000000000440445600000000000000009999123100000010000000000000BRDASAACNOR1123
012026031602MTRE3       010MITRE REALTYON      NM   R$  000000000040000000000004030000000000393000000000039800000000003970000000000397000000000040100964000000000000760800000000000302961300000000000000009999123100000010000000000000BRMTREACNOR6131
012026031602MTSA4       010METISA      PN           R$  000000000610000000000061000000000006100000000000610000000000061000000000005648000000000610000002000000000000000300000000000001830000000000000000009999123100000010000000000000BRMTSAACNPR9079
012026031602MULT3       010MULTIPLAN   ON      N2   R$  000000000345900000000034990000000003395000000000344600000000034110000000003411000000000341615801000000000007252200000000024993034000000000000000009999123100000010000000000000BRMULTACNOR5145
012026031602RECV3       010PETRORECSA  ON      NM   R$  000000000128900000000012920000000001238000000000126200000000012730000000001265000000000127316677000000000010057700000000012699984500000000000000009999123100000010000000000000BRRECVACNOR3110
012026031602SLCE3       010SLC AGRICOLAON      NM   R$  000000000163500000000016810000000001619000000000166600000000016640000000001664000000000166507037000000000002412200000000004020042400000000000000009999123100000010000000000000BRSLCEACNOR2128
012026031602GEPA4       010GER PARANAP PN           R$  000000000359900000000035990000000003504000000000353300000000035250000000003525000000000358100006000000000000000600000000000002119900000000000000009999123100000010000000000000BRGEPAACNPR9165
012026031602GFSA3       010GAFISA      ON      NM   R$  000000000022700000000002360000000000219000000000022500000000002190000000000219000000000022001083000000000001663200000000000374260700000000000000009999123100000010000000000000BRGFSAACNOR3127
012026031602GGBR3       010GERDAU      ON      N1   R$  000000000174300000000017890000000001743000000000176600000000017800000000001780000000000179000219000000000000068500000000000120978600000000000000009999123100000010000000000000BRGGBRACNOR1198
012026031602GGBR4       010GERDAU      PN      N1   R$  000000000206100000000020900000000002046000000000207400000000020800000000002080000000000208314510000000000006548400000000013582851900000000000000009999123100000010000000000000BRGGBRACNPR8198
012026031602ISAE3       010ISA ENERGIA ON  EJ  N1   R$  000000000345500000000034550000000003361000000000339200000000034390000000003381000000000344500030000000000000003800000000000012891900000000000000009999123100000010000000000000BRISAEACNOR2109
012026031602ISAE4       010ISA ENERGIA PN  EJ  N1   R$  000000000281800000000028720000000002792000000000284200000000028570000000002848000000000285806370000000000001452500000000004128944600000000000000009999123100000010000000000000BRISAEACNPR9109
012026031602PCAR3       010P.ACUCAR-CBDON      NM   R$  000000000030400000000003180000000000298000000000031100000000003150000000000314000000000031505522000000000009742000000000003033894800000000000000009999123100000010000000000000BRPCARACNOR3170
012026031602PTBL3       010PORTOBELLO  ON      NM   R$  000000000032500000000003280000000000311000000000031900000000003220000000000322000000000032300667000000000000314700000000000100586600000000000000009999123100000010000000000000BRPTBLACNOR8132
012026031602PTNT4       010PETTENATI   PN           R$  000000000083000000000008400000000000830000000000083700000000008400000000000840000000000084100024000000000000013100000000000010975000000000000000009999123100000010000000000000BRPTNTACNPR3049
012026031602BEEF3       010MINERVA     ON      NM   R$  000000000051000000000005160000000000500000000000050900000000005100000000000509000000000051026686000000000014390100000000007334558900000000000000009999123100000010000000000000BRBEEFACNOR6120
012026031602ABCB4       010ABC BRASIL  PN      N2   R$  000000000269000000000027090000000002590000000000268600000000026950000000002695000000000269602787000000000000622800000000001673065700000000000000009999123100000010000000000000BRABCBACNPR4150
012026031602ABEV3       010AMBEV S/A   ON           R$  000000000159700000000016200000000001587000000000159600000000015910000000001590000000000159221945000000000018638600000000029750749200000000000000009999123100000010000000000000BRABEVACNOR1134
012026031602RIAA3       010RIACHUELO   ON      NM   R$  000000000099500000000010090000000000961000000000099100000000010020000000000997000000000100307938000000000003441600000000003412406300000000000000009999123100000010000000000000BRRIAAACNOR2100
012026031602SMFT3       010SMART FIT   ON      NM   R$  000000000200300000000020220000000001967000000000199700000000020010000000002001000000000200523159000000000007529600000000015041157100000000000000009999123100000010000000000000BRSMFTACNOR1118
012026031602SMTO3       010SAO MARTINHOON      NM   R$  000000000180500000000018770000000001765000000000183500000000018360000000001836000000000183812785000000000005138900000000009430684900000000000000009999123100000010000000000000BRSMTOACNOR3129
012026031602HBOR3       010HELBOR      ON      NM   R$  000000000030000000000003030000000000286000000000029700000000003020000000000300000000000030202160000000000001703400000000000505919000000000000000009999123100000010000000000000BRHBORACNOR3120
012026031602HBRE3       010HBR REALTY  ON      NM   R$  000000000032900000000003310000000000310000000000032200000000003200000000000320000000000032104124000000000003105100000000000999876600000000000000009999123100000010000000000000BRHBREACNOR4101
012026031602HBSA3       010HIDROVIAS   ON      NM   R$  000000000042000000000004350000000000409000000000042400000000004280000000000425000000000042802853000000000003077000000000001306710000000000000000009999123100000010000000000000BRHBSAACNOR0102
012026031602RADL3       010RAIADROGASILON      NM   R$  000000000247500000000024940000000002419000000000245400000000024480000000002448000000000245426326000000000007881600000000019345840100000000000000009999123100000010000000000000BRRADLACNOR0165
012026031602ITUB3       010ITAUUNIBANCOON  EJ  N1   R$  000000000427800000000043390000000004263000000000430800000000043100000000004305000000000431505743000000000001291900000000005565910300000000000000009999123100000010000000000000BRITUBACNOR4366
012026031602ITUB4       010ITAUUNIBANCOPN  EJ  N1   R$  000000000458300000000046330000000004558000000000460400000000045920000000004592000000000459643640000000000047144000000000217097280100000000000000009999123100000010000000000000BRITUBACNPR1366
012026031602LUPA3       010LUPATECH    ON      NM   R$  000000000012400000000001240000000000119000000000012000000000001220000000000119000000000012200042000000000000083300000000000010024600000000000000009999123100000010000000000000BRLUPAACNOR8112
012026031602LUXM4       010TREVISA     PN           R$  000000000043000000000004300000000000430000000000043000000000004300000000000415000000000043000002000000000000002000000000000000860000000000000000009999123100000010000000000000BRLUXMACNPR4053
012026031602LWSA3       010LWSA        ON      NM   R$  000000000035000000000003580000000000347000000000035400000000003530000000000352000000000035308682000000000005516300000000001953508300000000000000009999123100000010000000000000BRLWSAACNOR8106
012026031602IBOV11      010IBOVESPA    IBO/         R$  000001893570000000189357000000018935700000001893570000000189357000000000000000000000000000000009000000000000000208000000000039386256000000000000009999123100001000000000000000BRIBOVINDM18016
012026031602MDIA3       010M.DIASBRANCOON  ED  NM   R$  000000000226900000000023280000000002260000000000229500000000023240000000002304000000000232410373000000000002111100000000004846287900000000000000009999123100000010000000000000BRMDIAACNOR7151
012026031602MDNE3       010MOURA DUBEUXON      NM   R$  000000000325100000000032860000000003149000000000323900000000032290000000003229000000000325206063000000000001077700000000003490705700000000000000009999123100000010000000000000BRMDNEACNOR9104
012026031602MEAL3       010IMC S/A     ON      NM   R$  000000000011500000000001170000000000115000000000011500000000001160000000000115000000000011600085000000000000105000000000000012124300000000000000009999123100000010000000000000BRMEALACNOR9105
012026031602MELK3       010MELNICK     ON      NM   R$  000000000040300000000004030000000000392000000000039600000000003950000000000395000000000039702006000000000000497500000000000197205900000000000000009999123100000010000000000000BRMELKACNOR8116
012026031602NEOE3       010NEOENERGIA  ON      NM   R$  000000000328400000000032850000000003279000000000328300000000032850000000003282000000000328502240000000000001761300000000005782649600000000000000009999123100000010000000000000BRNEOEACNOR3127
012026031602MGEL4       010MANGELS INDLPN           R$  000000000062300000000006300000000000623000000000062700000000006300000000000613000000000062900009000000000000002000000000000001254700000000000000009999123100000010000000000000BRMGELACNPR3147
012026031602MGLU3       010MAGAZ LUIZA ON      NM   R$  000000000090500000000009350000000000889000000000091100000000009190000000000916000000000091916201000000000017947600000000016351645300000000000000009999123100000010000000000000BRMGLUACNOR2130
012026031602OFSA3       010OUROFINO S/AON      NM   R$  000000000247200000000024720000000002460000000000247100000000024720000000002446000000000247200008000000000000002400000000000005931500000000000000009999123100000010000000000000BROFSAACNOR7122
012026031602ONCO3       010ONCOCLINICASON      NM   R$  000000000026500000000002650000000000255000000000025800000000002570000000000257000000000025802309000000000003046500000000000788512600000000000000009999123100000010000000000000BRONCOACNOR6102
012026031602OPCT3       010OCEANPACT   ON      NM   R$  000000000097900000000009790000000000918000000000095400000000009610000000000961000000000096904791000000000001675000000000001598751600000000000000009999123100000010000000000000BROPCTACNOR0100
012026031602ORVR3       010ORIZON      ON      NM   R$  000000000739800000000075250000000007281000000000746300000000074640000000007462000000000749002759000000000000496500000000003705428200000000000000009999123100000010000000000000BRORVRACNOR0101
012026031602OBTC3       010ORANJEBTC   ON           R$  000000000071200000000007530000000000692000000000072800000000007450000000000745000000000075002072000000000000428000000000000311951500000000000000009999123100000010000000000000BROBTCACNOR0100
012026031602ODPV3       010ODONTOPREV  ON      NM   R$  000000000146000000000014650000000001350000000000139700000000013720000000001371000000000138128271000000000018559300000000025934482800000000000000009999123100000010000000000000BRODPVACNOR4213
012026031602PRNR3       010PRINER      ON      NM   R$  000000000216700000000021990000000002136000000000216900000000021890000000002183000000000218902484000000000000729500000000001582794400000000000000009999123100000010000000000000BRPRNRACNOR4111
012026031602PSSA3       010PORTO SEGUROON      NM   R$  000000000520300000000052170000000005134000000000517800000000051810000000005175000000000518707575000000000001135000000000005877406800000000000000009999123100000010000000000000BRPSSAACNOR7161
012026031602JSLG3       010JSL         ON      NM   R$  000000000080200000000008160000000000783000000000080200000000008160000000000812000000000081606201000000000002118000000000001699203200000000000000009999123100000010000000000000BRJSLGACNOR2123
012026031602KEPL3       010KEPLER WEBERON      NM   R$  000000000101600000000010160000000000939000000000098300000000009630000000000962000000000096412866000000000011394700000000011202084000000000000000009999123100000010000000000000BRKEPLACNOR1069
012026031602KLBN11      010KLABIN S/A  UNT     N2   R$  000000000204500000000020650000000002031000000000205100000000020610000000002059000000000206108484000000000003704400000000007598417000000000000000009999123100000010000000000000BRKLBNCDAM18151
012026031602KLBN3       010KLABIN S/A  ON      N2   R$  000000000040500000000004140000000000405000000000041000000000004110000000000411000000000041400815000000000000497800000000000204528600000000000000009999123100000010000000000000BRKLBNACNOR2179
012026031602KLBN4       010KLABIN S/A  PN      N2   R$  000000000041000000000004120000000000405000000000040800000000004090000000000409000000000041104628000000000002900800000000001185972800000000000000009999123100000010000000000000BRKLBNACNPR9179
012026031602MILS3       010MILLS       ON      NM   R$  000000000150800000000015230000000001474000000000150900000000015150000000001511000000000151702079000000000000963800000000001455319600000000000000009999123100000010000000000000BRMILSACNOR2132
012026031602MLAS3       010MULTILASER  ON      NM   R$  000000000013400000000001340000000000128000000000013000000000001320000000000131000000000013200926000000000001029000000000000134496900000000000000009999123100000010000000000000BRMLASACNOR9102
012026031602MNDL3       010MUNDIAL     ON           R$  000000000180000000000018230000000001800000000000180200000000018230000000001780000000000186300004000000000000001100000000000001982300000000000000009999123100000010000000000000BRMNDLACNOR4109
012026031602MNPR3       010MINUPAR     ON           R$  000000000043400000000004470000000000423000000000043100000000004260000000000423000000000042700036000000000000012500000000000005389000000000000000009999123100000010000000000000BRMNPRACNOR5123
012026031602MOTV3       010MOTIVA SA   ON      NM   R$  000000000164200000000016760000000001631000000000165700000000016510000000001651000000000165420138000000000025155800000000041691556700000000000000009999123100000010000000000000BRMOTVACNOR7102
012026031602MOVI3       010MOVIDA      ON      NM   R$  000000000144500000000015100000000001415000000000147300000000014980000000001498000000000150008769000000000003706900000000005460331300000000000000009999123100000010000000000000BRMOVIACNOR0126
012026031602PNVL3       010DIMED       ON      NM   R$  000000000161000000000016140000000001554000000000158300000000016060000000001598000000000160805137000000000001202900000000001904964100000000000000009999123100000010000000000000BRPNVLACNOR9213
012026031602POMO3       010MARCOPOLO   ON      N2   R$  000000000064900000000006490000000000626000000000063400000000006330000000000632000000000063302784000000000001777200000000001127939600000000000000009999123100000010000000000000BRPOMOACNOR0105
012026031602POMO4       010MARCOPOLO   PN      N2   R$  000000000068400000000006840000000000664000000000067000000000006680000000000667000000000066923257000000000019779500000000013262603300000000000000009999123100000010000000000000BRPOMOACNPR7105
012026031602POSI3       010POSITIVO TECON      NM   R$  000000000040300000000004170000000000398000000000040600000000004140000000000412000000000041402267000000000001608700000000000654638800000000000000009999123100000010000000000000BRPOSIACNOR9118
012026031602RAIZ4       010RAIZEN      PN      N2   R$  000000000006300000000000680000000000062000000000006400000000000650000000000065000000000006613053000000000048026200000000003110010800000000000000009999123100000010000000000000BRRAIZACNPR6112
012026031602RANI3       010IRANI       ON      NM   R$  000000000098600000000009970000000000963000000000098800000000009890000000000987000000000098904221000000000001400400000000001383728400000000000000009999123100000010000000000000BRRANIACNOR5079
012026031602IFCM3       010INFRACOMM   ON      NM   R$  000000000007400000000000890000000000070000000000008200000000000880000000000085000000000008801137000000000002342700000000000193088400000000000000009999123100000010000000000000BRIFCMACNOR8109
012026031602IGTI11      010IGUATEMI S.AUNT ED  N1   R$  000000000289000000000029100000000002838000000000288600000000028940000000002891000000000289909946000000000001982400000000005722028900000000000000009999123100000010000000000000BRIGTICDAM16109
012026031602IGTI3       010IGUATEMI S.AON  ED  N1   R$  000000000033600000000003390000000000330000000000033300000000003340000000000332000000000033400109000000000000055700000000000018599400000000000000009999123100000010000000000000BRIGTIACNOR8109
012026031602INEP3       010INEPAR      ON           R$  000000000012500000000001280000000000123000000000012600000000001280000000000125000000000012800033000000000000020600000000000002600200000000000000009999123100000010000000000000BRINEPACNOR1145
012026031602JALL3       010JALLESMACHADON      NM   R$  000000000030400000000003130000000000300000000000030900000000003110000000000309000000000031100676000000000001372800000000000424366900000000000000009999123100000010000000000000BRJALLACNOR0106
012026031602JHSF3       010JHSF PART   ON  ED  NM   R$  000000000098000000000009870000000000964000000000097600000000009780000000000978000000000098206038000000000003072800000000003000780900000000000000009999123100000010000000000000BRJHSFACNOR2157
012026031602PFRM3       010PROFARMA    ON      NM   R$  000000000088900000000009170000000000863000000000090000000000009110000000000910000000000091600597000000000000114500000000000103054700000000000000009999123100000010000000000000BRPFRMACNOR1122
012026031602PGMN3       010PAGUE MENOS ON      NM   R$  000000000070000000000007090000000000657000000000067700000000006820000000000680000000000068313597000000000006121900000000004145295500000000000000009999123100000010000000000000BRPGMNACNOR8106
012026031602PINE3       010PINE        ON      N2   R$  000000000134600000000013460000000001250000000000127700000000012720000000001270000000000128400025000000000000006300000000000008047400000000000000009999123100000010000000000000BRPINEACNOR1160
012026031602PINE4       010PINE        PN      N2   R$  000000000135100000000013510000000001257000000000128100000000012740000000001273000000000127403113000000000000982600000000001258813500000000000000009999123100000010000000000000BRPINEACNPR8160
012026031602RNEW3       010RENOVA      ON      N2   R$  000000000013000000000001350000000000123000000000012800000000001320000000000128000000000013200421000000000000212700000000000027402000000000000000009999123100000010000000000000BRRNEWACNOR8113
012026031602RNEW4       010RENOVA      PN      N2   R$  000000000013700000000001390000000000124000000000013000000000001390000000000128000000000013900318000000000000379600000000000049531700000000000000009999123100000010000000000000BRRNEWACNPR5113
012026031602ROMI3       010ROMI        ON      NM   R$  000000000081400000000008260000000000804000000000081600000000008210000000000820000000000082300759000000000000185000000000000151004300000000000000009999123100000010000000000000BRROMIACNOR8201
012026031602RSUL4       010RIOSULENSE  PN           R$  000000000704800000000070480000000006762000000000689100000000067620000000006753000000000699600007000000000000001100000000000007581100000000000000009999123100000010000000000000BRRSULACNPR3116
012026031602RVEE3       010REVEE       ON      NM   R$  000000000016100000000001640000000000153000000000015800000000001530000000000154000000000019300013000000000000005800000000000000920300000000000000009999123100000010000000000000BRRVEEACNOR9102
012026031602PLAS3       010PLASCAR PARTON           R$  000000000044500000000004450000000000445000000000044500000000004450000000000435000000000045900001000000000000000100000000000000044500000000000000009999123100000010000000000000BRPLASACNOR2106
012026031602PLPL3       010PLANOEPLANO ON      NM   R$  000000000152000000000015250000000001470000000000150000000000015000000000001500000000000151909807000000000002742200000000004114301200000000000000009999123100000010000000000000BRPLPLACNOR5106
012026031602RAIL3       010RUMO S.A.   ON      NM   R$  000000000156700000000015900000000001550000000000157100000000015750000000001571000000000157516037000000000006813500000000010706226900000000000000009999123100000010000000000000BRRAILACNOR9106
012026031602SAPR11      010SANEPAR     UNT     N2   R$  000000000443900000000045120000000004397000000000445600000000044990000000004488000000000450208097000000000001600200000000007130792000000000000000009999123100000010000000000000BRSAPRCDAM13121
012026031602SAPR3       010SANEPAR     ON      N2   R$  000000000106000000000010640000000001026000000000104200000000010400000000001040000000000104901082000000000000301800000000000314628000000000000000009999123100000010000000000000BRSAPRACNOR9162
012026031602SAPR4       010SANEPAR     PN      N2   R$  000000000084900000000008640000000000832000000000084900000000008590000000000859000000000086403266000000000001480700000000001258120100000000000000009999123100000010000000000000BRSAPRACNPR6162
012026031602SBFG3       010GRUPO SBF   ON      NM   R$  000000000124900000000012740000000001215000000000125800000000012640000000001256000000000126504993000000000001626800000000002047578900000000000000009999123100000010000000000000BRSBFGACNOR1104
012026031602SBSP3       010SABESP      ON      NM   R$  000000001494400000000154090000000014932000000001519000000000152910000000015277000000001531014145000000000002301400000000034959913500000000000000009999123100000010000000000000BRSBSPACNOR5165
012026031602SYNE3       010SYN PROP TECON      NM   R$  000000000047800000000004810000000000468000000000047500000000004800000000000480000000000048101023000000000000363100000000000172795600000000000000009999123100000010000000000000BRSYNEACNOR2107
012026031602TAEE11      010TAESA       UNT     N2   R$  000000000436000000000043760000000004301000000000433700000000043590000000004343000000000435908266000000000002344800000000010171035100000000000000009999123100000010000000000000BRTAEECDAM10153
012026031602TAEE3       010TAESA       ON      N2   R$  000000000145800000000014580000000001423000000000143600000000014560000000001437000000000145800470000000000000083900000000000120536400000000000000009999123100000010000000000000BRTAEEACNOR9153
012026031602TAEE4       010TAESA       PN      N2   R$  000000000145900000000014630000000001442000000000145300000000014630000000001457000000000146300702000000000000158900000000000230974200000000000000009999123100000010000000000000BRTAEEACNPR6153
012026031602WEST3       010WESTWING    ON      NM   R$  000000000061000000000006280000000000610000000000061200000000006110000000000610000000000061700010000000000000006400000000000003920400000000000000009999123100000010000000000000BRWESTACNOR3101
012026031602WHRL3       010WHIRLPOOL   ON           R$  000000000043600000000004400000000000433000000000043600000000004400000000000437000000000044000012000000000000001400000000000000611200000000000000009999123100000010000000000000BRWHRLACNOR5135
012026031602WHRL4       010WHIRLPOOL   PN           R$  000000000047100000000004740000000000460000000000046600000000004730000000000468000000000047000045000000000000010800000000000005035200000000000000009999123100000010000000000000BRWHRLACNPR2135
012026031602WIZC3       010WIZ CO      ON      NM   R$  000000000092600000000009450000000000916000000000093200000000009370000000000937000000000094104979000000000001017600000000000949118200000000000000009999123100000010000000000000BRWIZCACNOR5104
012026031602WLMM4       010WLM IND COM PN           R$  000000000238100000000024480000000002261000000000238500000000024460000000002330000000000244700009000000000000001000000000000002385100000000000000009999123100000010000000000000BRWLMMACNPR3125
012026031602ANIM3       010ANIMA       ON      NM   R$  000000000049000000000004950000000000475000000000048600000000004920000000000491000000000049209678000000000008626400000000004193146600000000000000009999123100000010000000000000BRANIMACNOR6110
012026031602ARML3       010ARMAC       ON      NM   R$  000000000058500000000006060000000000565000000000058800000000006060000000000599000000000060702091000000000000914400000000000537934300000000000000009999123100000010000000000000BRARMLACNOR1117
012026031602ARND3       010ARANDU      ON      NM   R$  000000000008300000000000830000000000083000000000008300000000000830000000000077000000000008300001000000000000000100000000000000008300000000000000009999123100000010000000000000BRARNDACNOR6100
012026031602ASAI3       010ASSAI       ON      NM   R$  000000000091900000000009360000000000903000000000092300000000009250000000000925000000000093110375000000000007361500000000006801043200000000000000009999123100000010000000000000BRASAIACNOR0109
012026031602DMVF3       010D1000VFARMA ON      NM   R$  000000000074800000000007480000000000710000000000072800000000007100000000000709000000000071000329000000000000065700000000000047832600000000000000009999123100000010000000000000BRDMVFACNOR9100
012026031602DOTZ3       010DOTZ SA     ON      NM   R$  000000000031000000000003100000000000302000000000030600000000003090000000000302000000000030800031000000000000006500000000000001995100000000000000009999123100000010000000000000BRDOTZACNOR7101
012026031602CBEE3       010AMPLA ENERG ON           R$  000000000100000000000010000000000001000000000000100000000000010000000000000998000000000106300001000000000000000100000000000000100000000000000000009999123100000010000000000000BRCBEEACNOR3163
012026031602CEAB3       010CEA MODAS   ON      NM   R$  000000000126900000000012950000000001244000000000126700000000012770000000001277000000000127811868000000000006561600000000008318967000000000000000009999123100000010000000000000BRCEABACNOR1105
012026031602CEBR3       010CEB         ON           R$  000000000302400000000031450000000003023000000000306800000000031450000000003077000000000314500009000000000000000900000000000002761600000000000000009999123100000010000000000000BRCEBRACNOR5129
012026031602CEBR5       010CEB         PNA          R$  000000000296900000000029870000000002968000000000297800000000029700000000002865000000000297700010000000000000002800000000000008340800000000000000009999123100000010000000000000BRCEBRACNPA8128
012026031602CEBR6       010CEB         PNB          R$  000000000312900000000031290000000003080000000000310600000000030800000000003064000000000312800029000000000000005200000000000016154400000000000000009999123100000010000000000000BRCEBRACNPB6128
012026031602CEDO4       010CEDRO       PN      N1   R$  000000000096500000000009700000000000965000000000096800000000009700000000000970000000000107500002000000000000000300000000000000290500000000000000009999123100000010000000000000BRCEDOACNPR5128
012026031602CEEB3       010COELBA      ON           R$  000000000474900000000047490000000004671000000000471000000000046710000000004675000000000474700002000000000000000200000000000000942000000000000000009999123100000010000000000000BRCEEBACNOR3207
012026031602CGAS3       010COMGAS      ON           R$  000000001300000000000130000000000012900000000001295000000000129000000000012800000000001314900002000000000000000200000000000002590000000000000000009999123100000010000000000000BRCGASACNOR0168
012026031602CGAS5       010COMGAS      PNA          R$  000000001349900000000135000000000013489000000001349800000000134890000000013275000000001349000004000000000000000600000000000008098800000000000000009999123100000010000000000000BRCGASACNPA3165
012026031602CGRA3       010GRAZZIOTIN  ON           R$  000000000278000000000028540000000002780000000000282100000000028240000000002800000000000285200007000000000000000800000000000002257100000000000000009999123100000010000000000000BRCGRAACNOR2088
012026031602CGRA4       010GRAZZIOTIN  PN           R$  000000000270500000000027280000000002691000000000270300000000027280000000002701000000000272800040000000000000008500000000000022980200000000000000009999123100000010000000000000BRCGRAACNPR9088
012026031602AZEV3       010AZEVEDO     ON           R$  000000000002800000000000300000000000027000000000002800000000000280000000000028000000000002900374000000000001699600000000000048156200000000000000009999123100000010000000000000BRAZEVACNOR0123
012026031602AZEV4       010AZEVEDO     PN           R$  000000000002200000000000240000000000021000000000002200000000000220000000000021000000000002201052000000000010133100000000000226357900000000000000009999123100000010000000000000BRAZEVACNPR7123
012026031602AZTE3       010AZT ENERGIA ON           R$  000000000003100000000000310000000000029000000000003000000000000310000000000030000000000003100388000000000002772600000000000084748800000000000000009999123100000010000000000000BRAZTEACNOR4101
012026031602AZUL53      010AZUL        ON  P   N2   R$  000000002349900000000238000000000021401000000002280000000000232020000000023202000000002340000757000000006339000000000000000144745819000000000000009999123110000000000000000000BRAZULA01OR8102
012026031602AZZA3       010AZZAS 2154  ON      NM   R$  000000000258000000000026980000000002519000000000260400000000026440000000002643000000000264409721000000000002993000000000007795714700000000000000009999123100000010000000000000BRAZZAACNOR9104
012026031602BBDC3       010BRADESCO    ON      N1   R$  000000000181500000000018420000000001784000000000181900000000018290000000001828000000000183012692000000000005817600000000010587358900000000000000009999123100000010000000000000BRBBDCACNOR1797
012026031602BBDC4       010BRADESCO    PN      N1   R$  000000000209500000000021360000000002050000000000210600000000021230000000002122000000000212634201000000000032108900000000067621740400000000000000009999123100000010000000000000BRBBDCACNPR8797
012026031602SNSY5       010SANSUY      PNA          R$  000000000026000000000002640000000000260000000000026100000000002640000000000255000000000025900005000000000000000800000000000000209100000000000000009999123100000010000000000000BRSNSYACNPA5111
012026031602SOJA3       010BOA SAFRA   ON      NM   R$  000000000080800000000008240000000000796000000000081500000000008180000000000811000000000081801974000000000001157200000000000943865100000000000000009999123100000010000000000000BRSOJAACNOR9109
012026031602SOND6       010SONDOTECNICAPNB          R$  000000000545200000000054520000000005452000000000545200000000054520000000005354000000000000000001000000000000000100000000000000545200000000000000009999123100000010000000000000BRSONDACNPB6168
012026031602EALT3       010ACO ALTONA  ON           R$  000000000135000000000014000000000001340000000000137200000000014000000000001401000000000145500004000000000000000400000000000000549000000000000000009999123100000010000000000000BREALTACNOR4140
012026031602EALT4       010ACO ALTONA  PN           R$  000000000144000000000014600000000001431000000000144100000000014370000000001436000000000145900081000000000000020200000000000029123800000000000000009999123100000010000000000000BREALTACNPR1140
012026031602ECOR3       010ECORODOVIAS ON      NM   R$  000000000104700000000010860000000001040000000000106600000000010630000000001062000000000106311152000000000005644700000000006020162700000000000000009999123100000010000000000000BRECORACNOR8122
012026031602EGIE3       010ENGIE BRASILON      NM   R$  000000000334100000000033560000000003302000000000332400000000033310000000003319000000000333207583000000000001586100000000005272423900000000000000009999123100000010000000000000BREGIEACNOR9132
012026031602CRPG5       010CRISTAL     PNA          R$  000000000180100000000018390000000001775000000000180000000000017750000000001775000000000180000016000000000000002900000000000005221300000000000000009999123100000010000000000000BRCRPGACNPA3119
012026031602CSAN3       010COSAN       ON  ATZ NM   R$  000000000062000000000006240000000000600000000000061500000000006160000000000616000000000061738877000000000027111300000000016689447900000000000000009999123100000010000000000000BRCSANACNOR6129
012026031602HYPE3       010HYPERA      ON      NM   R$  000000000229300000000023010000000002241000000000227500000000022750000000002275000000000227609579000000000002120300000000004824448200000000000000009999123100000010000000000000BRHYPEACNOR0150
012026031602GRND3       010GRENDENE    ON      NM   R$  000000000050500000000005140000000000496000000000050700000000005100000000000507000000000051108749000000000010023100000000005086679400000000000000009999123100000010000000000000BRGRNDACNOR3182
012026031602BALM4       010BAUMER      PN           R$  000000000198100000000019900000000001961000000000197600000000019610000000001878000000000197900005000000000000002700000000000005336900000000000000009999123100000010000000000000BRBALMACNPR2060
012026031602BAZA3       010AMAZONIA    ON           R$  000000000880000000000088430000000008790000000000882700000000088430000000008811000000000884300022000000000000002700000000000023833900000000000000009999123100000010000000000000BRBAZAACNOR0180
012026031602BBAS3       010BRASIL      ON  ERJ NM   R$  000000000263100000000026980000000002610000000000267800000000026950000000002694000000000269635097000000000023891500000000063982707200000000000000009999123100000010000000000000BRBBASACNOR3335
012026031602LAND3       010TERRASANTAPAON      NM   R$  000000000088500000000009200000000000884000000000090000000000009000000000000896000000000090000134000000000000041100000000000037027700000000000000009999123100000010000000000000BRLANDACNOR9104
012026031602LAVV3       010LAVVI       ON      NM   R$  000000000182700000000018500000000001786000000000184000000000018410000000001841000000000185104126000000000001442200000000002654022300000000000000009999123100000010000000000000BRLAVVACNOR4120
012026031602LEVE3       010METAL LEVE  ON      NM   R$  000000000361200000000036150000000003530000000000358700000000035920000000003592000000000359302361000000000000392400000000001407823300000000000000009999123100000010000000000000BRLEVEACNOR2202
012026031602LJQQ3       010QUERO-QUERO ON      NM   R$  000000000021200000000002210000000000208000000000021600000000002200000000000216000000000022003438000000000003551600000000000767472800000000000000009999123100000010000000000000BRLJQQACNOR5105
012026031602MRVE3       010MRV         ON      NM   R$  000000000099900000000010090000000000978000000000099500000000010010000000001000000000000100110211000000000007494200000000007458486100000000000000009999123100000010000000000000BRMRVEACNOR2128
012026031602PRIO3       010PETRORIO    ON  ATZ NM   R$  000000000577000000000058130000000005662000000000571700000000057280000000005727000000000573777429000000000029969500000000171364401900000000000000009999123100000010000000000000BRPRIOACNOR1112
012026031602RAPT3       010RANDON PART ON      N1   R$  000000000065600000000006710000000000643000000000065800000000006640000000000659000000000067300037000000000000023000000000000015142400000000000000009999123100000010000000000000BRRAPTACNOR7166
012026031602RAPT4       010RANDON PART PN      N1   R$  000000000066000000000006660000000000642000000000065300000000006560000000000656000000000065906283000000000005198500000000003397224200000000000000009999123100000010000000000000BRRAPTACNPR4166
012026031602RCSL3       010RECRUSUL    ON           R$  000000000026300000000003120000000000263000000000029500000000003060000000000303000000000030600812000000000000518500000000000153050800000000000000009999123100000010000000000000BRRCSLACNOR4134
012026031602RCSL4       010RECRUSUL    PN           R$  000000000057100000000006110000000000533000000000056800000000005550000000000554000000000055504628000000000003538500000000002012422000000000000000009999123100000010000000000000BRRCSLACNPR1134
012026031602RDOR3       010REDE D OR   ON      NM   R$  000000000398800000000040350000000003902000000000397900000000039700000000003970000000000397530846000000000008714800000000034678921700000000000000009999123100000010000000000000BRRDORACNOR8119
012026031602SCAR3       010SAO CARLOS  ON      NM   R$  000000000152700000000015270000000001461000000000147900000000014610000000001461000000000147500232000000000000100700000000000148958700000000000000009999123100000010000000000000BRSCARACNOR7133
012026031602SEER3       010SER EDUCA   ON      NM   R$  000000000123000000000012300000000001169000000000120300000000012100000000001210000000000121304963000000000000965000000000001161061900000000000000009999123100000010000000000000BRSEERACNOR5120
012026031602SEQL3       010SEQUOIA LOG ON      NM   R$  000000000003200000000000400000000000030000000000003300000000000300000000000030000000000003101341000000000003092100000000000103980800000000000000009999123100000010000000000000BRSEQLACNOR2108
012026031602SHOW3       010TIME FOR FUNON      NM   R$  000000000045400000000004720000000000450000000000045800000000004640000000000459000000000046400193000000000000023400000000000010733100000000000000009999123100000010000000000000BRSHOWACNOR7106
012026031602SHUL4       010SCHULZ      PN           R$  000000000056000000000005630000000000546000000000055400000000005490000000000549000000000055001517000000000000776400000000000430266000000000000000009999123100000010000000000000BRSHULACNPR4163
012026031602SIMH3       010SIMPAR      ON      NM   R$  000000000123000000000012910000000001188000000000124500000000012910000000001283000000000129111596000000000006127000000000007631326500000000000000009999123100000010000000000000BRSIMHACNOR0110
012026031602FHER3       010FER HERINGERON      NM   R$  000000000042500000000004250000000000400000000000041500000000004180000000000408000000000041700061000000000000022000000000000009140100000000000000009999123100000010000000000000BRFHERACNOR5103
012026031602FIQE3       010UNIFIQUE    ON      NM   R$  000000000052500000000005390000000000516000000000052800000000005320000000000532000000000053301366000000000000778600000000000411557500000000000000009999123100000010000000000000BRFIQEACNOR5112
012026031602FLRY3       010FLEURY      ON      NM   R$  000000000166800000000017040000000001640000000000168100000000016900000000001689000000000169408672000000000004119800000000006926193600000000000000009999123100000010000000000000BRFLRYACNOR5143
012026031602FRAS3       010FRAS-LE     ON      N1   R$  000000000244600000000024910000000002410000000000245800000000024600000000002447000000000246000538000000000000813100000000001998784200000000000000009999123100000010000000000000BRFRASACNOR0163
012026031602BRKM3       010BRASKEM     ON      N1   R$  000000000090100000000009010000000000870000000000088000000000008700000000000870000000000088200162000000000000034200000000000030123400000000000000009999123100000010000000000000BRBRKMACNOR1119
012026031602BRKM5       010BRASKEM     PNA     N1   R$  000000000093800000000009480000000000913000000000092700000000009250000000000924000000000092705548000000000003611900000000003350537200000000000000009999123100000010000000000000BRBRKMACNPA4123
012026031602GEPA3       010GER PARANAP ON           R$  000000000339900000000033990000000003399000000000339900000000033990000000003380000000000339000001000000000000000100000000000000339900000000000000009999123100000010000000000000BRGEPAACNOR2158
012026031602BRSR3       010BANRISUL    ON      N1   R$  000000000197000000000020000000000001956000000000197300000000019840000000001967000000000200000053000000000000007000000000000013813400000000000000009999123100000010000000000000BRBRSRACNOR3197
012026031602CSED3       010CRUZEIRO EDUON      NM   R$  000000000066400000000006700000000000636000000000065200000000006650000000000662000000000066701026000000000000371200000000000242182500000000000000009999123100000010000000000000BRCSEDACNOR9107
012026031602CSMG3       010COPASA      ON      NM   R$  000000000542300000000055340000000005360000000000544800000000055340000000005534000000000553512953000000000002409900000000013130179000000000000000009999123100000010000000000000BRCSMGACNOR5183
012026031602EKTR4       010ELEKTRO     PN           R$  000000000400000000000040100000000004000000000000400700000000040100000000003801000000000400900004000000000000000400000000000001602900000000000000009999123100000010000000000000BREKTRACNPR7174
012026031602EMAE4       010EMAE        PN           R$  000000000472000000000048450000000004678000000000475200000000048370000000004764000000000483700034000000000000004600000000000021863500000000000000009999123100000010000000000000BREMAEACNPR1128
012026031602EMBJ3       010EMBRAER     ON      NM   R$  000000000915800000000093700000000008990000000000922300000000092900000000009287000000000930022194000000000004115300000000037957142700000000000000009999123100000010000000000000BREMBJACNOR1102
012026031602GGPS3       010GPS         ON      NM   R$  000000000182800000000018470000000001796000000000182700000000018310000000001830000000000183709382000000000003120800000000005701845000000000000000009999123100000010000000000000BRGGPSACNOR9106
012026031602INEP4       010INEPAR      PN           R$  000000000011700000000001200000000000112000000000011600000000001140000000000113000000000011500022000000000000027700000000000003236900000000000000009999123100000010000000000000BRINEPACNPR8145
012026031602INTB3       010INTELBRAS   ON      NM   R$  000000000138500000000013850000000001343000000000136400000000013740000000001372000000000137410074000000000005143100000000007018358300000000000000009999123100000010000000000000BRINTBACNOR9115
012026031602IRBR3       010IRBBRASIL REON      NM   R$  000000000610200000000062130000000006079000000000614500000000061280000000006127000000000614503162000000000000622600000000003826060900000000000000009999123100000010000000000000BRIRBRACNOR4113
012026031602UCAS3       010UNICASA     ON      NM   R$  000000000014400000000001510000000000144000000000014900000000001510000000000149000000000015100103000000000000035300000000000005260800000000000000009999123100000010000000000000BRUCASACNOR1114
012026031602UGPA3       010ULTRAPAR    ON      NM   R$  000000000254500000000026040000000002520000000000257000000000025910000000002579000000000259216250000000000006288700000000016165672000000000000000009999123100000010000000000000BRUGPAACNOR8159
012026031602UNIP3       010UNIPAR      ON           R$  000000000640000000000064880000000006230000000000634300000000063950000000006350000000000639000089000000000000013600000000000086268400000000000000009999123100000010000000000000BRUNIPACNOR7210
012026031602UNIP5       010UNIPAR      PNA          R$  000000000666700000000066670000000006666000000000666600000000066660000000006621000000000739900002000000000000000300000000000001999900000000000000009999123100000010000000000000BRUNIPACNPA0212
012026031602UNIP6       010UNIPAR      PNB          R$  000000000699200000000070490000000006653000000000681600000000068830000000006837000000000688304039000000000000913300000000006225386100000000000000009999123100000010000000000000BRUNIPACNPB8210
012026031602VAMO3       010VAMOS       ON      NM   R$  000000000043400000000004440000000000427000000000043500000000004390000000000437000000000043909731000000000012696900000000005532876300000000000000009999123100000010000000000000BRVAMOACNOR7109
012026031602YDUQ3       010YDUQS PART  ON      NM   R$  000000000130900000000013240000000001286000000000130300000000013010000000001300000000000130308133000000000002950700000000003845092600000000000000009999123100000010000000000000BRYDUQACNOR3108
012026031602BEES3       010BANESTES    ON           R$  000000000086600000000008990000000000863000000000087700000000008800000000000879000000000088000134000000000000032500000000000028514000000000000000009999123100000010000000000000BRBEESACNOR9415
012026031602BEES4       010BANESTES    PN           R$  000000000087600000000009000000000000876000000000089200000000008890000000000891000000000089900043000000000000006000000000000005352900000000000000009999123100000010000000000000BRBEESACNPR6340
012026031602GMAT3       010GRUPO MATEUSON      NM   R$  000000000056600000000005730000000000553000000000056600000000005660000000000565000000000056806959000000000008429000000000004776349900000000000000009999123100000010000000000000BRGMATACNOR7109
012026031602AVLL3       010ALPHAVILLE  ON      NM   R$  000000000007900000000000810000000000078000000000007900000000000800000000000078000000000008100006000000000000004500000000000000358800000000000000009999123100000010000000000000BRAVLLACNOR5103
012026031602AXIA3       010AXIA ENERGIAON      N1   R$  000000000600000000000062700000000005960000000000617100000000062360000000006230000000000623627633000000000008621500000000053210961900000000000000009999123100000010000000000000BRAXIAACNOR0102
012026031602AXIA6       010AXIA ENERGIAPNB     N1   R$  000000000659600000000068370000000006508000000000670300000000068010000000006782000000000680804894000000000000902000000000006046536400000000000000009999123100000010000000000000BRAXIAACNPB1103
012026031602AXIA7       010AXIA ENERGIAPNC     N1   R$  000000000582000000000060620000000005751000000000595600000000060360000000006022000000000604910176000000000002647900000000015771801400000000000000009999123100000010000000000000BRAXIAACNPC9100
012026031602CAMB3       010CAMBUCI     ON           R$  000000000094000000000009540000000000939000000000094700000000009520000000000948000000000095200055000000000000023300000000000022086800000000000000009999123100000010000000000000BRCAMBACNOR4136
012026031602CAML3       010CAMIL       ON  ED  NM   R$  000000000066900000000006870000000000655000000000067700000000006870000000000681000000000068703407000000000001361000000000000921460600000000000000009999123100000010000000000000BRCAMLACNOR3135
012026031602CASH3       010MELIUZ      ON      NM   R$  000000000034000000000003540000000000335000000000034700000000003540000000000350000000000035401933000000000001515900000000000526274900000000000000009999123100000010000000000000BRCASHACNOR8107
012026031602CSNA3       010SID NACIONALON           R$  000000000083700000000008510000000000830000000000083900000000008420000000000842000000000084313930000000000011092600000000009312379300000000000000009999123100000010000000000000BRCSNAACNOR6264
012026031602GOLL54      010GOL         PN *P        R$  000000000112600000000011490000000001125000000000113000000000011290000000001125000000000113500202000000000015145000000000000017128752000000000000009999123100010000000000000000BRGOLLA01PR5100
012026031602EVEN3       010EVEN        ON      NM   R$  000000000083500000000008350000000000801000000000081700000000008230000000000817000000000082301769000000000000526600000000000430270200000000000000009999123100000010000000000000BREVENACNOR8121
012026031602EZTC3       010EZTEC       ON      NM   R$  000000000155700000000015670000000001522000000000154600000000015490000000001548000000000155104838000000000001605200000000002482500400000000000000009999123100000010000000000000BREZTCACNOR0132
012026031602FESA3       010FERBASA     ON      N1   R$  000000000115700000000012150000000001157000000000118600000000012150000000001176000000000125900002000000000000000200000000000000237200000000000000009999123100000010000000000000BRFESAACNOR8194
012026031602FESA4       010FERBASA     PN      N1   R$  000000000084400000000008440000000000815000000000082600000000008270000000000826000000000082801308000000000000479500000000000396257400000000000000009999123100000010000000000000BRFESAACNPR5090
012026031602PDGR3       010PDG REALT   ON      NM   R$  000000000021600000000002220000000000214000000000021700000000002200000000000218000000000022000077000000000000022800000000000004956600000000000000009999123100000010000000000000BRPDGRACNOR8123
012026031602PDTC3       010PADTEC      ON      NM   R$  000000000016200000000001620000000000150000000000015300000000001510000000000151000000000015300154000000000000120900000000000018568300000000000000009999123100000010000000000000BRPDTCACNOR3101
012026031602PEAB3       010PAR AL BAHIAON           R$  000000000415000000000041500000000004150000000000415000000000041500000000003960000000000430000001000000000000000400000000000001660000000000000000009999123100000010000000000000BRPEABACNOR3138
012026031602PEAB4       010PAR AL BAHIAPN           R$  000000000390100000000039010000000003901000000000390100000000039010000000003900000000000429900001000000000000000100000000000000390100000000000000009999123100000010000000000000BRPEABACNPR0137
012026031602PETR3       010PETROBRAS   ON      N2   R$  000000000450000000000045000000000004390000000000444600000000044710000000004469000000000448025499000000000016688900000000074208638200000000000000009999123100000010000000000000BRPETRACNOR9212
012026031602PETR4       010PETROBRAS   PN  ATZ N2   R$  000000000413000000000041530000000004052000000000409700000000041130000000004112000000000411489881000000000083817000000000343424328200000000000000009999123100000010000000000000BRPETRACNPR6224
012026031602SANB11      010SANTANDER BRUNT          R$  000000000332800000000033740000000003275000000000333200000000033520000000003348000000000335509566000000000002964400000000009879031100000000000000009999123100000010000000000000BRSANBCDAM13172
012026031602SANB3       010SANTANDER BRON           R$  000000000164000000000016720000000001614000000000164800000000016710000000001651000000000167100501000000000000082600000000000136128500000000000000009999123100000010000000000000BRSANBACNOR8179
012026031602SANB4       010SANTANDER BRPN           R$  000000000169000000000017060000000001664000000000168600000000016980000000001698000000000169900418000000000000096600000000000162895500000000000000009999123100000010000000000000BRSANBACNPR5179
012026031602DXCO3       010DEXCO       ON      NM   R$  000000000054000000000005400000000000524000000000053000000000005330000000000531000000000053406160000000000006017400000000003194153100000000000000009999123100000010000000000000BRDXCOACNOR8108
012026031602ALPK3       010ESTAPAR     ON      NM   R$  000000000050800000000005200000000000495000000000050700000000005130000000000507000000000051500702000000000000182800000000000092692100000000000000009999123100000010000000000000BRALPKACNOR9101
012026031602ALUP11      010ALUPAR      UNT     N2   R$  000000000351000000000035490000000003496000000000351700000000035000000000003500000000000350704643000000000000821500000000002889897000000000000000009999123100000010000000000000BRALUPCDAM15126
012026031602ALUP3       010ALUPAR      ON      N2   R$  000000000130600000000013140000000001286000000000129800000000013010000000001293000000000131100059000000000000011200000000000014541800000000000000009999123100000010000000000000BRALUPACNOR8126
012026031602ALUP4       010ALUPAR      PN      N2   R$  000000000111900000000011340000000001102000000000111300000000011050000000001105000000000111700115000000000000021500000000000023943600000000000000009999123100000010000000000000BRALUPACNPR5126
012026031602AMAR3       010LOJAS MARISAON      NM   R$  000000000008900000000000900000000000088000000000008900000000000900000000000089000000000009000239000000000000129400000000000011522000000000000000009999123100000010000000000000BRAMARACNOR4115
012026031602AMOB3       010AUTOMOB     ON      NM   R$  000000000132500000000013420000000001299000000000132500000000013350000000001327000000000133800293000000000000043400000000000057528600000000000000009999123100000010000000000000BRAMOBACNOR9101
012026031602AERI3       010AERIS       ON      NM   R$  000000000028000000000002830000000000277000000000027900000000002790000000000277000000000027900088000000000000019100000000000005334100000000000000009999123100000010000000000000BRAERIACNOR4102
012026031602B3SA3       010B3          ON      NM   R$  000000000175700000000018630000000001749000000000182700000000018490000000001848000000000185045279000000000033357000000000060963517700000000000000009999123100000010000000000000BRB3SAACNOR6140
012026031602AALR3       010ALLIAR      ON      NM   R$  000000000055500000000005550000000000486000000000051500000000004900000000000489000000000049600353000000000000120700000000000062176800000000000000009999123100000010000000000000BRAALRACNOR6104
012026031602ATED3       010ATOM EDUC   ON           R$  000000000020700000000002070000000000207000000000020700000000002070000000000203000000000020500001000000000000000100000000000000020700000000000000009999123100000010000000000000BRATEDACNOR1100
012026031602AUAU3       010PETZCOBASI  ON      NM   R$  000000000030000000000003100000000000297000000000030400000000003060000000000306000000000030704451000000000003742900000000001139545500000000000000009999123100000010000000000000BRAUAUACNOR1100
012026031602AURE3       010AUREN       ON      NM   R$  000000000117400000000011870000000001160000000000116900000000011650000000001164000000000116711782000000000005193800000000006074708500000000000000009999123100000010000000000000BRAUREACNOR9105
012026031602AGRO3       010BRASILAGRO  ON      NM   R$  000000000210100000000021900000000002095000000000215100000000021360000000002136000000000215601264000000000000181900000000000391267700000000000000009999123100000010000000000000BRAGROACNOR7116
012026031602ALLD3       010ALLIED      ON      NM   R$  000000000072800000000007380000000000722000000000073100000000007340000000000732000000000073403786000000000000813200000000000595161000000000000000009999123100000010000000000000BRALLDACNOR3110
012026031602ALOS3       010ALLOS       ON  ED  NM   R$  000000000323200000000032510000000003166000000000322500000000032230000000003222000000000322513237000000000004215300000000013594869100000000000000009999123100000010000000000000BRALOSACNOR5119
012026031602ALPA3       010ALPARGATAS  ON      N1   R$  000000000132000000000013200000000001240000000000127800000000012750000000001275000000000131100040000000000000009000000000000011507400000000000000009999123100000010000000000000BRALPAACNOR0234
012026031602ALPA4       010ALPARGATAS  PN      N1   R$  000000000151700000000015180000000001481000000000149600000000014960000000001496000000000149707060000000000002348600000000003515596500000000000000009999123100000010000000000000BRALPAACNPR7235
012026031602CLSC4       010CELESC      PN      N2   R$  000000001502000000000150480000000014938000000001499700000000150390000000015016000000001504300024000000000000002600000000000038992200000000000000009999123100000010000000000000BRCLSCACNPR3138
012026031602CMIG3       010CEMIG       ON      N1   R$  000000000156100000000015620000000001523000000000154500000000015450000000001544000000000154600515000000000000096200000000000148634900000000000000009999123100000010000000000000BRCMIGACNOR6251
012026031602CMIG4       010CEMIG       PN      N1   R$  000000000120200000000012070000000001185000000000119400000000011930000000001192000000000119317562000000000011402500000000013617413700000000000000009999123100000010000000000000BRCMIGACNPR3252
012026031602CSUD3       010CSU DIGITAL ON      NM   R$  000000000189100000000019930000000001860000000000193100000000019340000000001934000000000195600633000000000000101700000000000196474900000000000000009999123100000010000000000000BRCSUDACNOR5117
012026031602CTKA3       010KARSTEN     ON           R$  000000000470000000000047800000000004700000000000474000000000047800000000002501000000000480000002000000000000000200000000000000948000000000000000009999123100000010000000000000BRCTKAACNOR0043
012026031602CTKA4       010KARSTEN     PN           R$  000000000427900000000046190000000004190000000000432000000000044110000000004410000000000449900035000000000000005600000000000024194000000000000000009999123100000010000000000000BRCTKAACNPR7043
012026031602CURY3       010CURY S/A    ON      NM   R$  000000000381200000000038900000000003778000000000384300000000038540000000003854000000000386510680000000000002185400000000008398529900000000000000009999123100000010000000000000BRCURYACNOR3116
012026031602CVCB3       010CVC BRASIL  ON      NM   R$  000000000022400000000002270000000000219000000000022300000000002230000000000222000000000022313492000000000019000900000000004246354100000000000000009999123100000010000000000000BRCVCBACNOR1118
012026031602BRAP3       010BRADESPAR   ON      N1   R$  000000000209100000000021620000000002091000000000213800000000021300000000002129000000000215000526000000000000088000000000000188168800000000000000009999123100000010000000000000BRBRAPACNOR5153
012026031602BRAP4       010BRADESPAR   PN      N1   R$  000000000245000000000024960000000002433000000000247400000000024830000000002480000000000248406386000000000002530500000000006261950000000000000000009999123100000010000000000000BRBRAPACNPR2153
012026031602CMIN3       010CSNMINERACAOON      N2   R$  000000000053800000000005510000000000535000000000054300000000005460000000000545000000000054708173000000000007126700000000003875711200000000000000009999123100000010000000000000BRCMINACNOR2116
012026031602COCE5       010COELCE      PNA          R$  000000000312800000000032500000000003127000000000319900000000032500000000003150000000000333200035000000000000005000000000000015999400000000000000009999123100000010000000000000BRCOCEACNPA3150
012026031602COGN3       010COGNA ON    ON      NM   R$  000000000034300000000003500000000000336000000000034300000000003460000000000346000000000034717483000000000022373400000000007686897800000000000000009999123100000010000000000000BRCOGNACNOR2110
012026031602ENEV3       010ENEVA       ON      NM   R$  000000000210100000000021570000000002094000000000213200000000021280000000002128000000000213619468000000000006724700000000014341393900000000000000009999123100000010000000000000BRENEVACNOR8107
012026031602ENGI11      010ENERGISA    UNT     N2   R$  000000000532800000000053960000000005257000000000534100000000053540000000005353000000000535410443000000000002492300000000013311988300000000000000009999123100000010000000000000BRENGICDAM16140
012026031602ENGI3       010ENERGISA    ON      N2   R$  000000000126300000000012890000000001250000000000125900000000012500000000001250000000000125800024000000000000003100000000000003904800000000000000009999123100000010000000000000BRENGIACNOR0150
012026031602ENGI4       010ENERGISA    PN      N2   R$  000000000102400000000010290000000001002000000000101600000000010250000000001010000000000102000034000000000000005200000000000005287700000000000000009999123100000010000000000000BRENGIACNPR7146
012026031602DESK3       010DESKTOP     ON      NM   R$  000000000132300000000014250000000001297000000000138500000000013980000000001392000000000139807288000000000001547900000000002145102200000000000000009999123100000010000000000000BRDESKACNOR2106
012026031602DEXP3       010DEXXOS PAR  ON      N1   R$  000000000074800000000007600000000000746000000000075200000000007520000000000751000000000076000480000000000000161000000000000121215100000000000000009999123100000010000000000000BRDEXPACNOR1109
012026031602DEXP4       010DEXXOS PAR  PN      N1   R$  000000000075300000000007560000000000752000000000075400000000007520000000000751000000000075700009000000000000001600000000000001206500000000000000009999123100000010000000000000BRDEXPACNPR8109
012026031602DIRR3       010DIRECIONAL  ON      NM   R$  000000000159700000000016220000000001574000000000159800000000016000000000001599000000000160214055000000000006345000000000010142331000000000000000009999123100000010000000000000BRDIRRACNOR0123
012026031602BRBI11      010BR PARTNERS UNT     N2   R$  000000000194100000000019410000000001885000000000190600000000018990000000001898000000000190502253000000000000354100000000000675179800000000000000009999123100000010000000000000BRBRBICDAM10116
012026031602CXSE3       010CAIXA SEGURION      NM   R$  000000000177100000000018210000000001753000000000179500000000017970000000001796000000000179815798000000000010821600000000019429834700000000000000009999123100000010000000000000BRCXSEACNOR7114
012026031602CYRE3       010CYRELA REALTON      NM   R$  000000000302700000000030690000000002964000000000302900000000030650000000003054000000000306514102000000000004713800000000014281496800000000000000009999123100000010000000000000BRCYREACNOR7143
012026031602ENJU3       010ENJOEI      ON      NM   R$  000000000011700000000001170000000000112000000000011400000000001140000000000114000000000011700145000000000000173000000000000019844900000000000000009999123100000010000000000000BRENJUACNOR9100
012026031602EPAR3       010EMBPAR S/A  ON           R$  000000000034600000000003460000000000342000000000034300000000003440000000000342000000000034400031000000000000012700000000000004365500000000000000009999123100000010000000000000BREPARACNOR9107
012026031602EQPA3       010EQTL PARA   ON           R$  000000000065300000000006540000000000637000000000064900000000006390000000000642000000000064900010000000000000001100000000000000714000000000000000009999123100000010000000000000BREQPAACNOR1112
012026031602EQPA5       010EQTL PARA   PNA          R$  000000000079500000000007950000000000795000000000079500000000007950000000000795000000000110000001000000000000000100000000000000079500000000000000009999123100000010000000000000BREQPAACNPA4112
012026031602EQTL3       010EQUATORIAL  ON      NM   R$  000000000416200000000041980000000004107000000000415900000000041700000000004170000000000417118832000000000004932800000000020515724200000000000000009999123100000010000000000000BREQTLACNOR0135
012026031602SUZB3       010SUZANO S.A. ON      NM   R$  000000000583000000000058680000000005741000000000580000000000058060000000005800000000000580615530000000000005090800000000029530724600000000000000009999123100000010000000000000BRSUZBACNOR0135
012026031602BLAU3       010BLAU        ON      NM   R$  000000000108800000000011070000000001053000000000108700000000010980000000001097000000000110801593000000000000286500000000000311627300000000000000009999123100000010000000000000BRBLAUACNOR8120
012026031602BMEB3       010MERCANTIL   ON      N1   R$  000000000703600000000072270000000007036000000000715500000000071790000000007038000000000717900011000000000000001100000000000007871500000000000000009999123100000010000000000000BRBMEBACNOR8210
012026031602BMEB4       010MERCANTIL   PN      N1   R$  000000000809100000000084390000000007984000000000819800000000084390000000008249000000000844600225000000000000031600000000000259082600000000000000009999123100000010000000000000BRBMEBACNPR5215
012026031602BMGB4       010BANCO BMG   PN      N1   R$  000000000048900000000005300000000000489000000000051200000000005230000000000522000000000052303243000000000002814100000000001442460200000000000000009999123100000010000000000000BRBMGBACNPR0118
012026031602BMIN4       010MERC INVEST PN           R$  000000000185000000000018500000000001850000000000185000000000018500000000001782000000000202400001000000000000000100000000000000185000000000000000009999123100000010000000000000BRBMINACNPR1177
012026031602BMKS3       010BIC MONARK  ON           R$  000000003790000000000387820000000037400000000003824100000000387000000000037500000000003870000021000000000000000074000000000002829838000000000000009999123100000010000000000000BRBMKSACNOR9169
012026031602BMOB3       010BEMOBI TECH ON      NM   R$  000000000239300000000024740000000002378000000000244500000000024490000000002427000000000245103390000000000000636700000000001557181600000000000000009999123100000010000000000000BRBMOBACNOR7107
012026031602BPAC11      010BTGP BANCO  UNT     N2   R$  000000000605700000000061690000000005927000000000606900000000061090000000006108000000000610921517000000000007548900000000045815484300000000000000009999123100000010000000000000BRBPACUNT006128
012026031602BPAC3       010BTGP BANCO  ON      N2   R$  000000000444000000000045000000000004312000000000438800000000044340000000004431000000000452000038000000000000004200000000000018430100000000000000009999123100000010000000000000BRBPACACNOR7139
012026031602BPAC5       010BTGP BANCO  PNA     N2   R$  000000000115300000000011530000000001129000000000113900000000011500000000001139000000000114900038000000000000010900000000000012419700000000000000009999123100000010000000000000BRBPACACNPA0139
012026031602CBAV3       010CBA         ON      NM   R$  000000000101800000000010200000000001014000000000101600000000010200000000001018000000000102003736000000000007075900000000007194358100000000000000009999123100000010000000000000BRCBAVACNOR5104
012026031602BGIP3       010BANESE      ON           R$  000000000556900000000060770000000005569000000000584300000000060770000000006000000000000618000006000000000000000600000000000003505900000000000000009999123100000010000000000000BRBGIPACNOR1215
012026031602BGIP4       010BANESE      PN           R$  000000000356000000000036880000000003550000000000362500000000036790000000003643000000000369600011000000000000001600000000000005800100000000000000009999123100000010000000000000BRBGIPACNPR8215
012026031602BHIA3       010CASAS BAHIA ON      NM   R$  000000000029300000000002950000000000282000000000028800000000002950000000000293000000000029503440000000000004840300000000001397286200000000000000009999123100000010000000000000BRBHIAACNOR1104
012026031602BIED3       010BIOMA EDUC  ON      MA   R$  000000000068500000000007650000000000681000000000070900000000007550000000000755000000000076400060000000000000024700000000000017518300000000000000009999123100000010000000000000BRBIEDACNOR2101
012026031602BIOM3       010BIOMM       ON      MA   R$  000000000061400000000006310000000000614000000000062400000000006310000000000631000000000063200087000000000000032100000000000020035400000000000000009999123100000010000000000000BRBIOMACNOR2113
012026031602BRSR6       010BANRISUL    PNB     N1   R$  000000000183800000000018770000000001811000000000185300000000018660000000001866000000000187406344000000000002562800000000004749912800000000000000009999123100000010000000000000BRBRSRACNPB4200
012026031602QUAL3       010QUALICORP   ON      NM   R$  000000000021400000000002140000000000203000000000020700000000002040000000000204000000000020506334000000000006948800000000001439529300000000000000009999123100000010000000000000BRQUALACNOR6122
012026031602BRST3       010BRISANET    ON      NM   R$  000000000031500000000003160000000000310000000000031200000000003120000000000312000000000031300643000000000000238700000000000074569300000000000000009999123100000010000000000000BRBRSTACNOR9102
012026031602BSLI3       010BRB BANCO   ON           R$  000000000047800000000004800000000000459000000000046400000000004600000000000457000000000046000107000000000000042000000000000019509300000000000000009999123100000010000000000000BRBSLIACNOR5198
012026031602BSLI4       010BRB BANCO   PN           R$  000000000048000000000004850000000000470000000000047800000000004710000000000470000000000047900069000000000000024800000000000011855300000000000000009999123100000010000000000000BRBSLIACNPR2198
012026031602WDCN3       010WDC NETWORKSON      NM   R$  000000000026300000000002630000000000251000000000025600000000002510000000000251000000000026200046000000000000023100000000000005922000000000000000009999123100000010000000000000BRWDCNACNOR2100
012026031602WEGE3       010WEG         ON      NM   R$  000000000493000000000049300000000004843000000000488400000000048690000000004868000000000487019586000000000005402000000000026386970800000000000000009999123100000010000000000000BRWEGEACNOR0234
012026031602VLID3       010VALID       ON      NM   R$  000000000217000000000021880000000002131000000000216200000000021750000000002161000000000217501470000000000000253700000000000548673600000000000000009999123100000010000000000000BRVLIDACNOR5148
012026031602VSTE3       010VESTE       ON      NM   R$  000000000038600000000003920000000000382000000000038800000000003900000000000381000000000039200018000000000000001900000000000000737800000000000000009999123100000010000000000000BRVSTEACNOR5104
012026031602VTRU3       010VITRUEDUCA  ON      NM   R$  000000000144700000000014700000000001427000000000145200000000014550000000001451000000000145502078000000000000405900000000000589440600000000000000009999123100000010000000000000BRVTRUACNOR3101
012026031602VULC3       010VULCABRAS   ON      NM   R$  000000000187100000000019030000000001847000000000187700000000018840000000001883000000000188807399000000000001905900000000003579164300000000000000009999123100000010000000000000BRVULCACNOR2181
012026031602VVEO3       010VIVEO       ON      NM   R$  000000000015500000000001560000000000148000000000015100000000001490000000000149000000000015101168000000000001181600000000000179595800000000000000009999123100000010000000000000BRVVEOACNOR0104
012026031602VALE3       010VALE        ON      NM   R$  000000000879200000000089160000000008729000000000880100000000088160000000008804000000000881836804000000000013952600000000122808361700000000000000009999123100000010000000000000BRVALEACNOR0219
012026031602VITT3       010VITTIA      ON      NM   R$  000000000040900000000004210000000000402000000000041400000000004200000000000415000000000042000807000000000000161500000000000066915400000000000000009999123100000010000000000000BRVITTACNOR4113
012026031602VIVA3       010VIVARA S.A. ON      NM   R$  000000000308900000000031320000000003047000000000308200000000030830000000003082000000000308310062000000000002407300000000007421698300000000000000009999123100000010000000000000BRVIVAACNOR0109
012026031602VIVR3       010VIVER       ON  ES  NM   R$  000000000004800000000000500000000000047000000000004800000000000490000000000048000000000004900132000000000000206000000000000009949200000000000000009999123100000010000000000000BRVIVRACNOR4126
012026031602VIVT3       010TELEF BRASILON  EJ       R$  000000000422700000000043120000000004192000000000423700000000042260000000004224000000000422923928000000000008387700000000035543015200000000000000009999123100000010000000000000BRVIVTACNOR0200
012026031602TOTS3       010TOTVS       ON      NM   R$  000000000375000000000037850000000003701000000000372600000000037330000000003732000000000373617439000000000003515100000000013097904800000000000000009999123100000010000000000000BRTOTSACNOR8150
012026031602TPIS3       010TRIUNFO PARTON      NM   R$  000000000066000000000006690000000000657000000000066100000000006690000000000662000000000066900079000000000000018600000000000012299800000000000000009999123100000010000000000000BRTPISACNOR8120
012026031602TRAD3       010TC          ON      NM   R$  000000000024600000000002460000000000236000000000023900000000002390000000000239000000000024400119000000000000036600000000000008759200000000000000009999123100000010000000000000BRTRADACNOR3102
012026031602TRIS3       010TRISUL      ON      NM   R$  000000000073000000000007480000000000717000000000073400000000007370000000000736000000000074001188000000000001060800000000000778658600000000000000009999123100000010000000000000BRTRISACNOR4122
012026031602TTEN3       0103TENTOS     ON      NM   R$  000000000170200000000017740000000001694000000000173900000000017360000000001735000000000174105976000000000001465300000000002548499700000000000000009999123100000010000000000000BRTTENACNOR0105
012026031602TUPY3       010TUPY        ON      NM   R$  000000000134500000000013450000000001283000000000131400000000013200000000001320000000000132703753000000000001194800000000001570980000000000000000009999123100000010000000000000BRTUPYACNOR1185
012026031602USIM3       010USIMINAS    ON      N1   R$  000000000069800000000007050000000000677000000000069300000000006930000000000690000000000069300611000000000000377900000000000262022400000000000000009999123100000010000000000000BRUSIMACNOR3167
012026031602USIM5       010USIMINAS    PNA     N1   R$  000000000069000000000007040000000000686000000000069400000000006900000000000690000000000069113243000000000009988000000000006936608900000000000000009999123100000010000000000000BRUSIMACNPA6172
012026031602VBBR3       010VIBRA       ON      NM   R$  000000000293400000000030590000000002896000000000300300000000030280000000003028000000000303722127000000000008914000000000026772156500000000000000009999123100000010000000000000BRVBBRACNOR1114
012026031602TASA3       010TAURUS ARMASON      N2   R$  000000000057800000000005970000000000574000000000058300000000005920000000000585000000000059500147000000000000033700000000000019679100000000000000009999123100000010000000000000BRTASAACNOR7106
012026031602TASA4       010TAURUS ARMASPN      N2   R$  000000000058300000000006050000000000567000000000059200000000005950000000000590000000000059501332000000000000525800000000000311633500000000000000009999123100000010000000000000BRTASAACNPR4106
012026031602TCSA3       010TECNISA     ON      NM   R$  000000000015800000000001610000000000150000000000015700000000001600000000000157000000000016000288000000000000217700000000000034205900000000000000009999123100000010000000000000BRTCSAACNOR3112
012026031602BBSE3       010BBSEGURIDADEON      NM   R$  000000000345000000000034930000000003420000000000345800000000034750000000003475000000000347914182000000000004866200000000016828616600000000000000009999123100000010000000000000BRBBSEACNOR5128
012026031602BRAV3       010BRAVA       ON  ATZ NM   R$  000000000193800000000019570000000001911000000000192900000000019170000000001917000000000191927817000000000013222400000000025507972100000000000000009999123100000010000000000000BRBRAVACNOR3104
012026031602CYRE4       010CYRELA REALTPN      NM   R$  000000000289600000000029010000000002810000000000286800000000029010000000002900000000000290301731000000000000286100000000000820817300000000000000009999123100000010000000000000BRCYREACNPR4114
012026031602ESPA3       010ESPACOLASER ON      NM   R$  000000000010600000000001100000000000103000000000010600000000001100000000000108000000000011000148000000000000274800000000000029179000000000000000009999123100000010000000000000BRESPAACNOR7105
012026031602ETER3       010ETERNIT     ON      NM   R$  000000000040100000000004050000000000399000000000040100000000004030000000000401000000000040500284000000000000107000000000000042991400000000000000009999123100000010000000000000BRETERACNOR3246
012026031602EUCA3       010EUCATEX     ON      N1   R$  000000000226500000000023930000000002265000000000233000000000023460000000002140000000000235000013000000000000001300000000000003029700000000000000009999123100000010000000000000BREUCAACNOR1159
012026031602EUCA4       010EUCATEX     PN      N1   R$  000000000213000000000021900000000002103000000000215200000000021710000000002156000000000218500177000000000000024600000000000052954500000000000000009999123100000010000000000000BREUCAACNPR8046
012026031602TECN3       010TECHNOS     ON      NM   R$  000000000085000000000008560000000000820000000000083000000000008330000000000821000000000083400306000000000000054200000000000045013100000000000000009999123100000010000000000000BRTECNACNOR6111
012026031602TELB3       010TELEBRAS    ON           R$  000000000141500000000014340000000001415000000000142600000000014290000000001380000000000142900005000000000000000500000000000000713200000000000000009999123100000010000000000000BRTELBACNOR2142
012026031602TELB4       010TELEBRAS    PN           R$  000000000082200000000008590000000000802000000000082000000000008190000000000805000000000083400029000000000000006200000000000005086300000000000000009999123100000010000000000000BRTELBACNPR9142
012026031602TEND3       010TENDA       ON      NM   R$  000000000296000000000030310000000002920000000000297900000000029850000000002984000000000298508760000000000001861800000000005548056100000000000000009999123100000010000000000000BRTENDACNOR4114
012026031602TFCO4       010TRACK FIELD PN      N2   R$  000000000172000000000017610000000001699000000000173200000000017360000000001735000000000173602971000000000000557400000000000965555000000000000000009999123100000010000000000000BRTFCOACNPR8121
012026031602TGMA3       010TEGMA       ON      NM   R$  000000000393500000000040170000000003842000000000396400000000040170000000003939000000000401703180000000000000978700000000003880290100000000000000009999123100000010000000000000BRTGMAACNOR7150
012026031602TIMS3       010TIM         ON      NM   R$  000000000277600000000027870000000002729000000000275400000000027300000000002730000000000273213039000000000003866600000000010648893700000000000000009999123100000010000000000000BRTIMSACNOR5129
012026031602TOKY3       010GRUPO TOKY  ON      NM   R$  000000000006500000000000690000000000056000000000006000000000000570000000000057000000000005800482000000000001015800000000000061493800000000000000009999123100000010000000000000BRTOKYACNOR5101
012026031607TXRX4       010TEX RENAUX  PN           R$  000000000015700000000001570000000000157000000000015700000000001570000000000157000000000018000004000000000000003000000000000000471000000000000000009999123100000010000000000000BRTXRXACNPR0142
012026031608BDLL4       010BARDELLA    PN           R$  000000000061200000000006120000000000612000000000061200000000006120000000000610000000000068000001000000000000000100000000000000061200000000000000009999123100000010000000000000BRBDLLACNPR8151
012026031608NEXP3       010NEXPE       ON           R$  000000000027800000000002780000000000278000000000027800000000002780000000000278000000000028400002000000000000000600000000000000166800000000000000009999123100000010000000000000BRNEXPACNOR0101
012026031608OIBR3       010OI          ON      N1   R$  000000000002000000000000200000000000020000000000002000000000000200000000000020000000000002100243000000000002163200000000000043264000000000000000009999123100000010000000000000BROIBRACNOR1112
012026031608OIBR4       010OI          PN      N1   R$  000000000012900000000001290000000000129000000000012900000000001290000000000129000000000015300007000000000000002300000000000000296700000000000000009999123100000010000000000000BROIBRACNPR8111
012026031608JFEN3       010JOAO FORTES ON           R$  000000000009500000000000960000000000095000000000009500000000000950000000000094000000000009500010000000000000006200000000000000589100000000000000009999123100000010000000000000BRJFENACNOR0061
012026031608RPMG3       010PET MANGUINHON           R$  000000000023800000000002390000000000230000000000023600000000002370000000000232000000000023700024000000000000004500000000000001066300000000000000009999123100000010000000000000BRRPMGACNOR9194
012026031608RSID3       010ROSSI RESID ON      NM   R$  000000000017000000000001700000000000170000000000017000000000001700000000000165000000000017000002000000000000000500000000000000085000000000000000009999123100000010000000000000BRRSIDACNOR8121
012026031608PMAM3       010PARANAPANEMAON  ES  NM   R$  000000000006400000000000660000000000062000000000006300000000000640000000000064000000000006500552000000000001417000000000000089669300000000000000009999123100000010000000000000BRPMAMACNOR3046
012026031608OSXB3       010OSX BRASIL  ON      NM   R$  000000000017400000000001740000000000174000000000017400000000001740000000000174000000000018100004000000000000000500000000000000087000000000000000009999123100000010000000000000BROSXBACNOR8109
012026031608HOOT4       010HOTEIS OTHONPN           R$  000000000071000000000007100000000000699000000000070900000000006990000000000699000000000071300002000000000000020400000000000014479600000000000000009999123100000010000000000000BRHOOTACNPR9015
012026031608LIGT3       010LIGHT S/A   ON      NM   R$  000000000049300000000005030000000000476000000000049300000000004950000000000495000000000049804243000000000001950400000000000963283700000000000000009999123100000010000000000000BRLIGTACNOR2125
012026031608FICT3       010FICTORALIMENON           R$  000000000008000000000000850000000000067000000000007000000000000700000000000068000000000007000327000000000000322400000000000022836200000000000000009999123100000010000000000000BRFICTACNOR3101
012026031608AMBP3       010AMBIPAR     ON      NM   R$  000000000002500000000000250000000000023000000000002400000000000240000000000024000000000002501519000000000009676500000000000233687000000000000000009999123100000010000000000000BRAMBPACNOR6105
012026031608AMER3       010AMERICANAS  ON      NM   R$  000000000055600000000005570000000000525000000000054000000000005460000000000546000000000055102190000000000001592100000000000860393300000000000000009999123100000010000000000000BRAMERACNOR6103
012026031608AGXY3       010AGROGALAXY  ON      NM   R$  000000000022500000000002320000000000221000000000022400000000002230000000000220000000000022300124000000000000015300000000000003428300000000000000009999123100000010000000000000BRAGXYACNOR4104
012026031608CTAX3       010CONTAX      ON           R$  000000000008700000000000870000000000084000000000008400000000000850000000000085000000000008700003000000000000009600000000000000811700000000000000009999123100000010000000000000BRCTAXACNOR3119
012026031608BOBR4       010BOMBRIL     PN           R$  000000000012200000000001220000000000122000000000012200000000001220000000000122000000000012500006000000000000003600000000000000439200000000000000009999123100000010000000000000BRBOBRACNPR3128
012026031610ABCB10      010ABC BRASIL  PN  REC N2   R$  000000000252200000000026980000000002522000000000262800000000026980000000002502000000000273000009000000000000000900000000000002365600000000000000009999123100000010000000000000BRABCBR20PR9149
012026031610PMAM1       010PARANAPANEMADIR ORD NM   R$  000000000000100000000000010000000000001000000000000100000000000010000000000000000000000000100145000000000002182900000000000002182900000000000000009999123100000010000000000000BRPMAMD10OR9045
012026031610AZUL12      010AZUL        DIR     N2   R$  000000002150000000000215000000000015652000000001860000000000164990000000015711000000001649900056000000000443000000000000000008241417000000000000009999123110000000000000000000BRAZULD02M17101
012026031610AZUL14      010AZUL        DIR     N2   R$  000000000404000000000040400000000004040000000000400000000000040400000000004040000000000800000023000000000075000000000000000000303000000000000000009999123110000000000000000000BRAZULD03M16101
012026031610AZUL16      010AZUL        DIR     N2   R$  000000001410000000000155000000000014100000000001450000000000145000000000014400000000001550000031000000000075000000000000000001092200000000000000009999123110000000000000000000BRAZULD04M15101
012026031610HYPE1       010HYPERA      DIR ORD NM   R$  000000000021000000000002100000000000163000000000017900000000001920000000000165000000000019200577000000000000274800000000000049385000000000000000009999123100000010000000000000BRHYPED02OR3149
012026031610BMEB9       010MERCANTIL   ON  REC N1   R$  000000000690000000000070000000000006900000000000697500000000069860000000006587000000000700000005000000000000000500000000000003487800000000000000009999123100000010000000000000BRBMEBR04OR7209
012026031610VGIA12      010FIAGRO VGIA DIR          R$  000000000004300000000000440000000000006000000000001300000000000100000000000010000000000001103578000000000000957737000000000012961091000000000000009999123100000010000000000000BRVGIAD04M12153
012026031610VIVR13      010VIVER       DIR     NM   R$  000000000000100000000000010000000000001000000000000100000000000010000000000000000000000000100022000000000000052200000000000000052200000000000000009999123100000010000000000000BRVIVRD03M15125
012026031612NSLU11      010FII LOURDES CI  ER       R$  000000002070000000000209630000000020700000000002089200000000209000000000020739000000002165000077000000000000005286000000000110435677000000000000009999123100000010000000000000BRNSLUCTF008332
012026031612NVHO11      010FII NOVOHORICI  ER       R$  000000000119900000000011990000000001123000000000119600000000011990000000001180000000000119900015000000000000001231000000000001473436000000000000009999123100000010000000000000BRNVHOCTF003251
012026031612MAXR11      010FII MAX RET CI           R$  000000000634800000000063700000000006323000000000634500000000063700000000006323000000000641700019000000000000000071000000000000450497000000000000009999123100000010000000000000BRMAXRCTF009288
012026031612MXRF11      010FII MAXI RENCI  ER       R$  000000000099200000000009920000000000980000000000098400000000009810000000000981000000000098254660000000000002234444000000002199985031000000000000009999123100000010000000000000BRMXRFCTF008275
012026031612RELG11      010FII REC LOG CI           R$  000000000642000000000064640000000006420000000000643700000000064470000000006421000000000644700226000000000000001433000000000009224672000000000000009999123100000010000000000000BRRELGCTF008156
012026031612GSRF11      010FII GSRF    CI           R$  000000001071200000000107120000000010712000000001071200000000107120000000000000000000000000000001000000000000000020000000000000214240000000000000009999123100000010000000000000BRGSRFCTF000100
012026031612GTWR11      010FII G TOWERSCI  ER       R$  000000000854600000000085660000000008500000000000854700000000085450000000008501000000000854501157000000000000008926000000000076298975000000000000009999123100000010000000000000BRGTWRCTF003184
012026031612GZIT11      010FII GAZIT   CI  ERS      R$  000000000450200000000045550000000004407000000000447400000000044340000000004433000000000443403585000000000000029641000000000132616395000000000000009999123100000010000000000000BRGZITCTF005129
012026031612HAAA11      010FII HEDGEAAACI  ER       R$  000000000629900000000062990000000005552000000000590200000000055560000000005558000000000563700013000000000000000014000000000000082633000000000000009999123100000010000000000000BRHAAACTF003164
012026031612HABT11      010FII HABIT IICI  ER       R$  000000000768900000000077000000000007550000000000761200000000076230000000007590000000000762301352000000000000026075000000000198505464000000000000009999123100000010000000000000BRHABTCTF001181
012026031612ITIP11      010FII INTER IPCI  ER       R$  000000000663100000000066310000000006550000000000657300000000065650000000006565000000000658000091000000000000002182000000000014342704000000000000009999123100000010000000000000BRITIPCTF002150
012026031612ITIT11      010FII INTER ITCI  ER       R$  000000000732900000000073480000000007276000000000730800000000073330000000007276000000000733300055000000000000001080000000000007892816000000000000009999123100000010000000000000BRITITCTF004150
012026031612ITRI11      010FII ITRI    CI  ER       R$  000000000857400000000085740000000008407000000000847700000000084540000000008454000000000848301696000000000000016049000000000136057773000000000000009999123100000010000000000000BRITRICTF008123
012026031612LMAI11      010LABINAFII   CI  ER       R$  000000000374000000000037400000000003700000000000370100000000037000000000003600000000000372500009000000000000000318000000000001177211000000000000009999123100000010000000000000BRLMAICTF003102
012026031612DAMA11      010FII DAMA    CI           R$  000000000070500000000007060000000000694000000000070500000000007050000000000704000000000070500037000000000000001541000000000001086527000000000000009999123100000010000000000000BRDAMACTF007121
012026031612DAMT11      010FII DIAMANTECI           R$  000000000106600000000010660000000001065000000000106500000000010650000000000941000000000106500003000000000000000025000000000000026626000000000000009999123100000010000000000000BRDAMTCTF007119
012026031612RECD11      010FII RECD    CI  ER       R$  000000000070100000000007160000000000701000000000071200000000007010000000000700000000000070100013000000000000000257000000000000183191000000000000009999123100000010000000000000BRRECDCTF004119
012026031612RECM11      010FII RECM    CI           R$  000000000085300000000009260000000000853000000000086200000000008550000000000856000000000087200113000000000000020549000000000017726441000000000000009999123100000010000000000000BRRECMCTF005116
012026031612RECR11      010FII REC RECECI           R$  000000000824200000000082420000000008162000000000820100000000082420000000008210000000000824204528000000000000060130000000000493176622000000000000009999123100000010000000000000BRRECRCTF004172
012026031612RECT11      010FII REC RENDCI           R$  000000000395000000000040100000000003950000000000398800000000039900000000003990000000000400900943000000000000026964000000000107558954000000000000009999123100000010000000000000BRRECTCTF000188
012026031612SJAU11      010FII SJ AU   CI           R$  000000000007100000000000750000000000070000000000007200000000000700000000000070000000000007400103000000000000036464000000000002655384000000000000009999123100000010000000000000BRSJAUCTF009104
012026031612IRIM11      010FII IRIM    CI           R$  000000000643500000000064940000000006400000000000643500000000064700000000006470000000000648507111000000000000089701000000000577259049000000000000009999123100000010000000000000BRIRIMCTF003156
012026031612KNCR11      010FII KINEA RICI  ER       R$  000000001063900000000106500000000010582000000001063100000000106400000000010640000000001064831343000000000000221777000000002357929637000000000000009999123100000010000000000000BRKNCRCTF000263
012026031612PABY11      010FII PANAMBY CI           R$  000000000177500000000018750000000001775000000000178900000000018750000000001525000000000187500015000000000000000080000000000000143122000000000000009999123100000010000000000000BRPABYCTF012158
012026031612PATA11      010FII PATA    CI  ER       R$  000000000095500000000010000000000000955000000000099000000000010000000000000958000000000100000005000000000000000010000000000000009908000000000000009999123100000010000000000000BRPATACTF006119
012026031612PATC11      010FII PATC VBICI  ER       R$  000000000394200000000039420000000003887000000000391200000000039230000000003887000000000392300017000000000000000105000000000000410761000000000000009999123100000010000000000000BRPATCCTF002191
012026031612PATL11      010FII PATL VBICI  ER       R$  000000000670000000000067300000000006690000000000671200000000067250000000006725000000000672601084000000000000010674000000000071648692000000000000009999123100000010000000000000BRPATLCTF003167
012026031612PVBI11      010FII PVBI VBICI  ER       R$  000000000780000000000080130000000007775000000000785900000000079990000000007991000000000799917939000000000000182650000000001435464411000000000000009999123100000010000000000000BRPVBICTF003173
012026031612BCRI11      010FII BEES CRICI  ER       R$  000000000659900000000066470000000006514000000000658000000000066340000000006575000000000663401528000000000000012563000000000082666424000000000000009999123100000010000000000000BRBCRICTF009236
012026031612ABCP11      010FII ABC IMOBCI  ER       R$  000000000817300000000082000000000007900000000000806500000000080440000000008015000000000804500110000000000000000850000000000006855672000000000000009999123100000010000000000000BRABCPCTF000361
012026031612SMRE11      010FII SMRE    CI  ER       R$  000000000680100000000068730000000006599000000000673300000000066500000000006650000000000673600054000000000000000951000000000006403216000000000000009999123100000010000000000000BRSMRECTF001124
012026031612GRUL11      010FII GRUL    CI  ER       R$  000000000090200000000009020000000000876000000000088700000000008880000000000888000000000089400590000000000000044805000000000039783254000000000000009999123100000010000000000000BRGRULCTF004117
012026031612GSFI11      010FII GENERAL CI           R$  000000000111100000000011210000000001090000000000110100000000011020000000001102000000000111900188000000000009140369000000010072639940000000000000009999123100000010000000000000BRGSFICTF009103
012026031612HBCR11      010FII HBC REN CI  ER       R$  000000001379000000000137900000000013790000000001379000000000137900000000009836000000001378000002000000000000000037000000000000510230000000000000009999123100000010000000000000BRHBCRCTF001162
012026031612HCHG11      010FII HECT CRICI           R$  000000000819900000000081990000000008199000000000819900000000081990000000008025000000000819900003000000000000000011000000000000090189000000000000009999123100000010000000000000BRHCHGCTF001156
012026031612RINV11      010FII REAL INVCI           R$  000000001100100000000112500000000011001000000001108200000000110700000000011070000000001110000489000000000000041738000000000462568856000000000000009999123100000010000000000000BRRINVCTF004141
012026031612HCRI11      010FII CRIANCA CI           R$  000000002879100000000293000000000028791000000002919400000000293000000000029200000000002930000035000000000000000135000000000003941234000000000000009999123100000010000000000000BRHCRICTF006349
012026031612HCTR11      010FII HECTARE CI           R$  000000000221800000000022180000000002200000000000220500000000022020000000002202000000000220501559000000000000043780000000000096567955000000000000009999123100000010000000000000BRHCTRCTF003189
012026031612HDEL11      010FII HEDGE DVCI           R$  000000001015500000000101550000000009500000000001013100000000095000000000000000000000000950000006000000000000000147000000000001489275000000000000009999123100000010000000000000BRHDELCTF006107
012026031612HDOF11      010FII HEDGE OFCI           R$  000000000900000000000090000000000009000000000000900000000000090000000000008800000000000910000501000000000000005000000000000045000000000000000000009999123100000010000000000000BRHDOFCTF007100
012026031612HFOF11      010FII HTOPFOF3CI  ER       R$  000000000070700000000007070000000000691000000000069800000000007000000000000700000000000070308447000000000000278943000000000194963782000000000000009999123100000010000000000000BRHFOFCTF002212
012026031612HGBL11      010FII HGBL    CI  ER       R$  000000000091600000000009390000000000916000000000092200000000009300000000000920000000000093000149000000000000001619000000000001493925000000000000009999123100000010000000000000BRHGBLCTF005127
012026031612HGBS11      010FII HEDGEBS CI  ER       R$  000000000204400000000020630000000002033000000000205100000000020470000000002046000000000204710420000000000000307637000000000631078600000000000000009999123100000010000000000000BRHGBSCTF000333
012026031612HGCR11      010FII HGCR PAXCI  ER       R$  000000000961500000000096920000000009456000000000956600000000096110000000009600000000000961107165000000000000052983000000000506861473000000000000009999123100000010000000000000BRHGCRCTF000267
012026031612HGIC11      010FII HGI CRI CI           R$  000000000665000000000066500000000006301000000000651700000000066150000000006604000000000661500023000000000000000083000000000000540929000000000000009999123100000010000000000000BRHGICCTF009160
012026031612HGLG11      010FII HGLG PAXCI  ER       R$  000000001591300000000159130000000015730000000001583800000000158440000000015840000000001584418787000000000000096600000000001530025472000000000000009999123100000010000000000000BRHGLGCTF004294
012026031612HGPO11      010FII HGPO PAXCI           R$  000000001495100000000152980000000014930000000001505100000000150000000000014950000000001508900066000000000000000407000000000006125818000000000000009999123100000010000000000000BRHGPOCTF009166
012026031612HGRE11      010FII HGRE PAXCI  ER       R$  000000001304400000000131270000000012952000000001305400000000130650000000013065000000001310004038000000000000028654000000000374071648000000000000009999123100000010000000000000BRHGRECTF006313
